{
  "_format": "hh-sol-artifact-1",
  "contractName": "GToken",
  "sourceName": "contracts/ERC1155game.sol",
  "abi": [
    {
      "inputs": [
        {
          "internalType": "string",
          "name": "URI",
          "type": "string"
        }
      ],
      "stateMutability": "nonpayable",
      "type": "constructor"
    },
    {
      "anonymous": false,
      "inputs": [
        {
          "indexed": true,
          "internalType": "address",
          "name": "account",
          "type": "address"
        },
        {
          "indexed": true,
          "internalType": "address",
          "name": "operator",
          "type": "address"
        },
        {
          "indexed": false,
          "internalType": "bool",
          "name": "approved",
          "type": "bool"
        }
      ],
      "name": "ApprovalForAll",
      "type": "event"
    },
    {
      "anonymous": false,
      "inputs": [
        {
          "indexed": true,
          "internalType": "address",
          "name": "operator",
          "type": "address"
        },
        {
          "indexed": true,
          "internalType": "address",
          "name": "from",
          "type": "address"
        },
        {
          "indexed": true,
          "internalType": "address",
          "name": "to",
          "type": "address"
        },
        {
          "indexed": false,
          "internalType": "uint256[]",
          "name": "ids",
          "type": "uint256[]"
        },
        {
          "indexed": false,
          "internalType": "uint256[]",
          "name": "values",
          "type": "uint256[]"
        }
      ],
      "name": "TransferBatch",
      "type": "event"
    },
    {
      "anonymous": false,
      "inputs": [
        {
          "indexed": true,
          "internalType": "address",
          "name": "operator",
          "type": "address"
        },
        {
          "indexed": true,
          "internalType": "address",
          "name": "from",
          "type": "address"
        },
        {
          "indexed": true,
          "internalType": "address",
          "name": "to",
          "type": "address"
        },
        {
          "indexed": false,
          "internalType": "uint256",
          "name": "id",
          "type": "uint256"
        },
        {
          "indexed": false,
          "internalType": "uint256",
          "name": "value",
          "type": "uint256"
        }
      ],
      "name": "TransferSingle",
      "type": "event"
    },
    {
      "anonymous": false,
      "inputs": [
        {
          "indexed": false,
          "internalType": "string",
          "name": "value",
          "type": "string"
        },
        {
          "indexed": true,
          "internalType": "uint256",
          "name": "id",
          "type": "uint256"
        }
      ],
      "name": "URI",
      "type": "event"
    },
    {
      "inputs": [
        {
          "internalType": "uint256",
          "name": "tokenID",
          "type": "uint256"
        }
      ],
      "name": "BuyCharacter",
      "outputs": [
        {
          "internalType": "string",
          "name": "charactername",
          "type": "string"
        }
      ],
      "stateMutability": "payable",
      "type": "function"
    },
    {
      "inputs": [],
      "name": "GOLD",
      "outputs": [
        {
          "internalType": "uint256",
          "name": "",
          "type": "uint256"
        }
      ],
      "stateMutability": "view",
      "type": "function"
    },
    {
      "inputs": [],
      "name": "LOKI",
      "outputs": [
        {
          "internalType": "uint256",
          "name": "",
          "type": "uint256"
        }
      ],
      "stateMutability": "view",
      "type": "function"
    },
    {
      "inputs": [],
      "name": "SILVER",
      "outputs": [
        {
          "internalType": "uint256",
          "name": "",
          "type": "uint256"
        }
      ],
      "stateMutability": "view",
      "type": "function"
    },
    {
      "inputs": [],
      "name": "THOR",
      "outputs": [
        {
          "internalType": "uint256",
          "name": "",
          "type": "uint256"
        }
      ],
      "stateMutability": "view",
      "type": "function"
    },
    {
      "inputs": [],
      "name": "THORS_HAMMER",
      "outputs": [
        {
          "internalType": "uint256",
          "name": "",
          "type": "uint256"
        }
      ],
      "stateMutability": "view",
      "type": "function"
    },
    {
      "inputs": [
        {
          "internalType": "address",
          "name": "account",
          "type": "address"
        },
        {
          "internalType": "uint256",
          "name": "id",
          "type": "uint256"
        }
      ],
      "name": "balanceOf",
      "outputs": [
        {
          "internalType": "uint256",
          "name": "",
          "type": "uint256"
        }
      ],
      "stateMutability": "view",
      "type": "function"
    },
    {
      "inputs": [
        {
          "internalType": "address[]",
          "name": "accounts",
          "type": "address[]"
        },
        {
          "internalType": "uint256[]",
          "name": "ids",
          "type": "uint256[]"
        }
      ],
      "name": "balanceOfBatch",
      "outputs": [
        {
          "internalType": "uint256[]",
          "name": "",
          "type": "uint256[]"
        }
      ],
      "stateMutability": "view",
      "type": "function"
    },
    {
      "inputs": [],
      "name": "buyGold",
      "outputs": [],
      "stateMutability": "payable",
      "type": "function"
    },
    {
      "inputs": [],
      "name": "buySilver",
      "outputs": [],
      "stateMutability": "payable",
      "type": "function"
    },
    {
      "inputs": [],
      "name": "buyer",
      "outputs": [
        {
          "internalType": "address",
          "name": "",
          "type": "address"
        }
      ],
      "stateMutability": "view",
      "type": "function"
    },
    {
      "inputs": [],
      "name": "buythorshammer",
      "outputs": [],
      "stateMutability": "nonpayable",
      "type": "function"
    },
    {
      "inputs": [
        {
          "internalType": "address",
          "name": "account",
          "type": "address"
        },
        {
          "internalType": "address",
          "name": "operator",
          "type": "address"
        }
      ],
      "name": "isApprovedForAll",
      "outputs": [
        {
          "internalType": "bool",
          "name": "",
          "type": "bool"
        }
      ],
      "stateMutability": "view",
      "type": "function"
    },
    {
      "inputs": [],
      "name": "ownerofThorshammer",
      "outputs": [
        {
          "internalType": "address",
          "name": "",
          "type": "address"
        }
      ],
      "stateMutability": "view",
      "type": "function"
    },
    {
      "inputs": [
        {
          "internalType": "address",
          "name": "from",
          "type": "address"
        },
        {
          "internalType": "address",
          "name": "to",
          "type": "address"
        },
        {
          "internalType": "uint256[]",
          "name": "ids",
          "type": "uint256[]"
        },
        {
          "internalType": "uint256[]",
          "name": "amounts",
          "type": "uint256[]"
        },
        {
          "internalType": "bytes",
          "name": "data",
          "type": "bytes"
        }
      ],
      "name": "safeBatchTransferFrom",
      "outputs": [],
      "stateMutability": "nonpayable",
      "type": "function"
    },
    {
      "inputs": [
        {
          "internalType": "address",
          "name": "from",
          "type": "address"
        },
        {
          "internalType": "address",
          "name": "to",
          "type": "address"
        },
        {
          "internalType": "uint256",
          "name": "id",
          "type": "uint256"
        },
        {
          "internalType": "uint256",
          "name": "amount",
          "type": "uint256"
        },
        {
          "internalType": "bytes",
          "name": "data",
          "type": "bytes"
        }
      ],
      "name": "safeTransferFrom",
      "outputs": [],
      "stateMutability": "nonpayable",
      "type": "function"
    },
    {
      "inputs": [],
      "name": "sellhammer",
      "outputs": [],
      "stateMutability": "nonpayable",
      "type": "function"
    },
    {
      "inputs": [
        {
          "internalType": "address",
          "name": "operator",
          "type": "address"
        },
        {
          "internalType": "bool",
          "name": "approved",
          "type": "bool"
        }
      ],
      "name": "setApprovalForAll",
      "outputs": [],
      "stateMutability": "nonpayable",
      "type": "function"
    },
    {
      "inputs": [
        {
          "internalType": "bytes4",
          "name": "interfaceId",
          "type": "bytes4"
        }
      ],
      "name": "supportsInterface",
      "outputs": [
        {
          "internalType": "bool",
          "name": "",
          "type": "bool"
        }
      ],
      "stateMutability": "view",
      "type": "function"
    },
    {
      "inputs": [
        {
          "internalType": "uint256",
          "name": "",
          "type": "uint256"
        }
      ],
      "name": "uri",
      "outputs": [
        {
          "internalType": "string",
          "name": "",
          "type": "string"
        }
      ],
      "stateMutability": "view",
      "type": "function"
    }
  ],
  "bytecode": "0x60806040523480156200001157600080fd5b5060405162003cae38038062003cae8339818101604052810190620000379190620006d9565b806200004981620000b760201b60201c565b5033600360006101000a81548173ffffffffffffffffffffffffffffffffffffffff021916908373ffffffffffffffffffffffffffffffffffffffff160217905550620000b0336002600160405180602001604052806000815250620000d360201b60201c565b5062000d70565b8060029080519060200190620000cf92919062000574565b5050565b600073ffffffffffffffffffffffffffffffffffffffff168473ffffffffffffffffffffffffffffffffffffffff16141562000146576040517f08c379a00000000000000000000000000000000000000000000000000000000081526004016200013d90620009c6565b60405180910390fd5b6000620001586200029860201b60201c565b905062000191816000876200017388620002a060201b60201c565b6200018488620002a060201b60201c565b876200036960201b60201c565b8260008086815260200190815260200160002060008773ffffffffffffffffffffffffffffffffffffffff1673ffffffffffffffffffffffffffffffffffffffff1681526020019081526020016000206000828254620001f2919062000ab4565b925050819055508473ffffffffffffffffffffffffffffffffffffffff16600073ffffffffffffffffffffffffffffffffffffffff168273ffffffffffffffffffffffffffffffffffffffff167fc3d58168c5ae7397731d063d5bbf3d657854427343f4c083240f7aacaa2d0f62878760405162000272929190620009e8565b60405180910390a462000291816000878787876200037160201b60201c565b5050505050565b600033905090565b60606000600167ffffffffffffffff811115620002e6577f4e487b7100000000000000000000000000000000000000000000000000000000600052604160045260246000fd5b604051908082528060200260200182016040528015620003155781602001602082028036833780820191505090505b509050828160008151811062000354577f4e487b7100000000000000000000000000000000000000000000000000000000600052603260045260246000fd5b60200260200101818152505080915050919050565b505050505050565b6200039d8473ffffffffffffffffffffffffffffffffffffffff166200056160201b62000fe21760201c565b1562000559578373ffffffffffffffffffffffffffffffffffffffff1663f23a6e6187878686866040518663ffffffff1660e01b8152600401620003e6959493929190620008fa565b602060405180830381600087803b1580156200040157600080fd5b505af19250505080156200043557506040513d601f19601f82011682018060405250810190620004329190620006ad565b60015b620004cd576200044462000c92565b8062000451575062000490565b806040517f08c379a00000000000000000000000000000000000000000000000000000000081526004016200048791906200095e565b60405180910390fd5b6040517f08c379a0000000000000000000000000000000000000000000000000000000008152600401620004c49062000982565b60405180910390fd5b63f23a6e6160e01b7bffffffffffffffffffffffffffffffffffffffffffffffffffffffff1916817bffffffffffffffffffffffffffffffffffffffffffffffffffffffff19161462000557576040517f08c379a00000000000000000000000000000000000000000000000000000000081526004016200054e90620009a4565b60405180910390fd5b505b505050505050565b600080823b905060008111915050919050565b828054620005829062000bb1565b90600052602060002090601f016020900481019282620005a65760008555620005f2565b82601f10620005c157805160ff1916838001178555620005f2565b82800160010185558215620005f2579182015b82811115620005f1578251825591602001919060010190620005d4565b5b50905062000601919062000605565b5090565b5b808211156200062057600081600090555060010162000606565b5090565b60006200063b620006358462000a49565b62000a15565b9050828152602081018484840111156200065457600080fd5b6200066184828562000b7b565b509392505050565b6000815190506200067a8162000d56565b92915050565b600082601f8301126200069257600080fd5b8151620006a484826020860162000624565b91505092915050565b600060208284031215620006c057600080fd5b6000620006d08482850162000669565b91505092915050565b600060208284031215620006ec57600080fd5b600082015167ffffffffffffffff8111156200070757600080fd5b620007158482850162000680565b91505092915050565b620007298162000b11565b82525050565b60006200073c8262000a7c565b62000748818562000a92565b93506200075a81856020860162000b7b565b620007658162000c74565b840191505092915050565b60006200077d8262000a87565b62000789818562000aa3565b93506200079b81856020860162000b7b565b620007a68162000c74565b840191505092915050565b6000620007c060348362000aa3565b91507f455243313135353a207472616e7366657220746f206e6f6e204552433131353560008301527f526563656976657220696d706c656d656e7465720000000000000000000000006020830152604082019050919050565b60006200082860288362000aa3565b91507f455243313135353a204552433131353552656365697665722072656a6563746560008301527f6420746f6b656e730000000000000000000000000000000000000000000000006020830152604082019050919050565b60006200089060218362000aa3565b91507f455243313135353a206d696e7420746f20746865207a65726f2061646472657360008301527f73000000000000000000000000000000000000000000000000000000000000006020830152604082019050919050565b620008f48162000b71565b82525050565b600060a0820190506200091160008301886200071e565b6200092060208301876200071e565b6200092f6040830186620008e9565b6200093e6060830185620008e9565b81810360808301526200095281846200072f565b90509695505050505050565b600060208201905081810360008301526200097a818462000770565b905092915050565b600060208201905081810360008301526200099d81620007b1565b9050919050565b60006020820190508181036000830152620009bf8162000819565b9050919050565b60006020820190508181036000830152620009e18162000881565b9050919050565b6000604082019050620009ff6000830185620008e9565b62000a0e6020830184620008e9565b9392505050565b6000604051905081810181811067ffffffffffffffff8211171562000a3f5762000a3e62000c45565b5b8060405250919050565b600067ffffffffffffffff82111562000a675762000a6662000c45565b5b601f19601f8301169050602081019050919050565b600081519050919050565b600081519050919050565b600082825260208201905092915050565b600082825260208201905092915050565b600062000ac18262000b71565b915062000ace8362000b71565b9250827fffffffffffffffffffffffffffffffffffffffffffffffffffffffffffffffff0382111562000b065762000b0562000be7565b5b828201905092915050565b600062000b1e8262000b51565b9050919050565b60007fffffffff0000000000000000000000000000000000000000000000000000000082169050919050565b600073ffffffffffffffffffffffffffffffffffffffff82169050919050565b6000819050919050565b60005b8381101562000b9b57808201518184015260208101905062000b7e565b8381111562000bab576000848401525b50505050565b6000600282049050600182168062000bca57607f821691505b6020821081141562000be15762000be062000c16565b5b50919050565b7f4e487b7100000000000000000000000000000000000000000000000000000000600052601160045260246000fd5b7f4e487b7100000000000000000000000000000000000000000000000000000000600052602260045260246000fd5b7f4e487b7100000000000000000000000000000000000000000000000000000000600052604160045260246000fd5b6000601f19601f8301169050919050565b60008160e01c9050919050565b600060443d101562000ca45762000d53565b60046000803e62000cb760005162000c85565b6308c379a0811462000cca575062000d53565b60405160043d036004823e80513d602482011167ffffffffffffffff8211171562000cf85750505062000d53565b808201805167ffffffffffffffff81111562000d1957505050505062000d53565b8060208301013d850181111562000d365750505050505062000d53565b62000d418262000c74565b60208401016040528296505050505050505b90565b62000d618162000b25565b811462000d6d57600080fd5b50565b612f2e8062000d806000396000f3fe60806040526004361061011e5760003560e01c80636eb0a016116100a0578063d562e20411610064578063d562e20414610382578063e3e55f08146103ad578063e985e9c5146103d8578063ed560a4814610415578063f242432a146104455761011e565b80636eb0a016146102c15780637150d8ae146102ec5780639034196d14610317578063a0ac9f191461032e578063a22cb465146103595761011e565b806330753b42116100e757806330753b421461020d5780633e4bee381461022457806348f853ba1461024f5780634e1273f41461027a5780635aba2cea146102b75761011e565b8062fdd58e1461012357806301ffc9a7146101605780630e89341c1461019d5780632eb2c2d6146101da5780632f7b8af414610203575b600080fd5b34801561012f57600080fd5b5061014a60048036038101906101459190612010565b61046e565b604051610157919061298c565b60405180910390f35b34801561016c57600080fd5b50610187600480360381019061018291906120b8565b610537565b60405161019491906127ef565b60405180910390f35b3480156101a957600080fd5b506101c460048036038101906101bf919061210a565b610619565b6040516101d1919061280a565b60405180910390f35b3480156101e657600080fd5b5061020160048036038101906101fc9190611e86565b6106ad565b005b61020b61074e565b005b34801561021957600080fd5b5061022261078c565b005b34801561023057600080fd5b50610239610848565b604051610246919061298c565b60405180910390f35b34801561025b57600080fd5b5061026461084d565b604051610271919061298c565b60405180910390f35b34801561028657600080fd5b506102a1600480360381019061029c919061204c565b610852565b6040516102ae9190612796565b60405180910390f35b6102bf610a03565b005b3480156102cd57600080fd5b506102d6610a4d565b6040516102e391906126b9565b60405180910390f35b3480156102f857600080fd5b50610301610a73565b60405161030e91906126b9565b60405180910390f35b34801561032357600080fd5b5061032c610a99565b005b34801561033a57600080fd5b50610343610c4e565b604051610350919061298c565b60405180910390f35b34801561036557600080fd5b50610380600480360381019061037b9190611fd4565b610c53565b005b34801561038e57600080fd5b50610397610dd4565b6040516103a4919061298c565b60405180910390f35b3480156103b957600080fd5b506103c2610dd9565b6040516103cf919061298c565b60405180910390f35b3480156103e457600080fd5b506103ff60048036038101906103fa9190611e4a565b610dde565b60405161040c91906127ef565b60405180910390f35b61042f600480360381019061042a919061210a565b610e72565b60405161043c919061280a565b60405180910390f35b34801561045157600080fd5b5061046c60048036038101906104679190611f45565b610f41565b005b60008073ffffffffffffffffffffffffffffffffffffffff168373ffffffffffffffffffffffffffffffffffffffff1614156104df576040517f08c379a00000000000000000000000000000000000000000000000000000000081526004016104d69061286c565b60405180910390fd5b60008083815260200190815260200160002060008473ffffffffffffffffffffffffffffffffffffffff1673ffffffffffffffffffffffffffffffffffffffff16815260200190815260200160002054905092915050565b60007fd9b67a26000000000000000000000000000000000000000000000000000000007bffffffffffffffffffffffffffffffffffffffffffffffffffffffff1916827bffffffffffffffffffffffffffffffffffffffffffffffffffffffff1916148061060257507f0e89341c000000000000000000000000000000000000000000000000000000007bffffffffffffffffffffffffffffffffffffffffffffffffffffffff1916827bffffffffffffffffffffffffffffffffffffffffffffffffffffffff1916145b80610612575061061182610ff5565b5b9050919050565b60606002805461062890612c91565b80601f016020809104026020016040519081016040528092919081815260200182805461065490612c91565b80156106a15780601f10610676576101008083540402835291602001916106a1565b820191906000526020600020905b81548152906001019060200180831161068457829003601f168201915b50505050509050919050565b6106b561105f565b73ffffffffffffffffffffffffffffffffffffffff168573ffffffffffffffffffffffffffffffffffffffff1614806106fb57506106fa856106f561105f565b610dde565b5b61073a576040517f08c379a0000000000000000000000000000000000000000000000000000000008152600401610731906128cc565b60405180910390fd5b6107478585858585611067565b5050505050565b6000341161075b57600080fd5b61078a336000670de0b6b3a7640000346107759190612b50565b604051806020016040528060008152506113c7565b565b600161079933600261046e565b146107a357600080fd5b6107e333600460009054906101000a900473ffffffffffffffffffffffffffffffffffffffff166002600160405180602001604052806000815250610f41565b600460009054906101000a900473ffffffffffffffffffffffffffffffffffffffff16600360006101000a81548173ffffffffffffffffffffffffffffffffffffffff021916908373ffffffffffffffffffffffffffffffffffffffff160217905550565b600081565b600381565b60608151835114610898576040517f08c379a000000000000000000000000000000000000000000000000000000000815260040161088f9061292c565b60405180910390fd5b6000835167ffffffffffffffff8111156108db577f4e487b7100000000000000000000000000000000000000000000000000000000600052604160045260246000fd5b6040519080825280602002602001820160405280156109095781602001602082028036833780820191505090505b50905060005b84518110156109f8576109a2858281518110610954577f4e487b7100000000000000000000000000000000000000000000000000000000600052603260045260246000fd5b6020026020010151858381518110610995577f4e487b7100000000000000000000000000000000000000000000000000000000600052603260045260246000fd5b602002602001015161046e565b8282815181106109db577f4e487b7100000000000000000000000000000000000000000000000000000000600052603260045260246000fd5b602002602001018181525050806109f190612cc3565b905061090f565b508091505092915050565b60003411610a1057600080fd5b610a4b336001670de0b6b3a7640000600234610a2c9190612b81565b610a369190612b50565b604051806020016040528060008152506113c7565b565b600360009054906101000a900473ffffffffffffffffffffffffffffffffffffffff1681565b600460009054906101000a900473ffffffffffffffffffffffffffffffffffffffff1681565b33600460006101000a81548173ffffffffffffffffffffffffffffffffffffffff021916908373ffffffffffffffffffffffffffffffffffffffff160217905550600a610b09600460009054906101000a900473ffffffffffffffffffffffffffffffffffffffff16600061046e565b1015610b1457600080fd5b600f610b43600460009054906101000a900473ffffffffffffffffffffffffffffffffffffffff16600161046e565b1015610b4e57600080fd5b6001610b7d600460009054906101000a900473ffffffffffffffffffffffffffffffffffffffff16600361046e565b1015610b8857600080fd5b610bea600460009054906101000a900473ffffffffffffffffffffffffffffffffffffffff16600360009054906101000a900473ffffffffffffffffffffffffffffffffffffffff166000600a60405180602001604052806000815250610f41565b610c4c600460009054906101000a900473ffffffffffffffffffffffffffffffffffffffff16600360009054906101000a900473ffffffffffffffffffffffffffffffffffffffff166001600f60405180602001604052806000815250610f41565b565b600481565b8173ffffffffffffffffffffffffffffffffffffffff16610c7261105f565b73ffffffffffffffffffffffffffffffffffffffff161415610cc9576040517f08c379a0000000000000000000000000000000000000000000000000000000008152600401610cc09061290c565b60405180910390fd5b8060016000610cd661105f565b73ffffffffffffffffffffffffffffffffffffffff1673ffffffffffffffffffffffffffffffffffffffff16815260200190815260200160002060008473ffffffffffffffffffffffffffffffffffffffff1673ffffffffffffffffffffffffffffffffffffffff16815260200190815260200160002060006101000a81548160ff0219169083151502179055508173ffffffffffffffffffffffffffffffffffffffff16610d8361105f565b73ffffffffffffffffffffffffffffffffffffffff167f17307eab39ab6107e8899845ad3d59bd9653f200f220920489ca2b5937696c3183604051610dc891906127ef565b60405180910390a35050565b600281565b600181565b6000600160008473ffffffffffffffffffffffffffffffffffffffff1673ffffffffffffffffffffffffffffffffffffffff16815260200190815260200160002060008373ffffffffffffffffffffffffffffffffffffffff1673ffffffffffffffffffffffffffffffffffffffff16815260200190815260200160002060009054906101000a900460ff16905092915050565b60606802b5e3af16b18800003414610e8957600080fd5b6003821480610e985750600482145b610ea157600080fd5b610ebd33836001604051806020016040528060008152506113c7565b6003821415610f03576040518060400160405280600481526020017f54484f52000000000000000000000000000000000000000000000000000000008152509050610f3c565b6040518060400160405280600481526020017f4c6f6b690000000000000000000000000000000000000000000000000000000081525090505b919050565b610f4961105f565b73ffffffffffffffffffffffffffffffffffffffff168573ffffffffffffffffffffffffffffffffffffffff161480610f8f5750610f8e85610f8961105f565b610dde565b5b610fce576040517f08c379a0000000000000000000000000000000000000000000000000000000008152600401610fc59061288c565b60405180910390fd5b610fdb858585858561155d565b5050505050565b600080823b905060008111915050919050565b60007f01ffc9a7000000000000000000000000000000000000000000000000000000007bffffffffffffffffffffffffffffffffffffffffffffffffffffffff1916827bffffffffffffffffffffffffffffffffffffffffffffffffffffffff1916149050919050565b600033905090565b81518351146110ab576040517f08c379a00000000000000000000000000000000000000000000000000000000081526004016110a29061294c565b60405180910390fd5b600073ffffffffffffffffffffffffffffffffffffffff168473ffffffffffffffffffffffffffffffffffffffff16141561111b576040517f08c379a0000000000000000000000000000000000000000000000000000000008152600401611112906128ac565b60405180910390fd5b600061112561105f565b90506111358187878787876117df565b60005b845181101561133257600085828151811061117c577f4e487b7100000000000000000000000000000000000000000000000000000000600052603260045260246000fd5b6020026020010151905060008583815181106111c1577f4e487b7100000000000000000000000000000000000000000000000000000000600052603260045260246000fd5b60200260200101519050600080600084815260200190815260200160002060008b73ffffffffffffffffffffffffffffffffffffffff1673ffffffffffffffffffffffffffffffffffffffff16815260200190815260200160002054905081811015611262576040517f08c379a0000000000000000000000000000000000000000000000000000000008152600401611259906128ec565b60405180910390fd5b81810360008085815260200190815260200160002060008c73ffffffffffffffffffffffffffffffffffffffff1673ffffffffffffffffffffffffffffffffffffffff168152602001908152602001600020819055508160008085815260200190815260200160002060008b73ffffffffffffffffffffffffffffffffffffffff1673ffffffffffffffffffffffffffffffffffffffff16815260200190815260200160002060008282546113179190612afa565b925050819055505050508061132b90612cc3565b9050611138565b508473ffffffffffffffffffffffffffffffffffffffff168673ffffffffffffffffffffffffffffffffffffffff168273ffffffffffffffffffffffffffffffffffffffff167f4a39dc06d4c0dbc64b70af90fd698a233a518aa5d07e595d983b8c0526c8f7fb87876040516113a99291906127b8565b60405180910390a46113bf8187878787876117e7565b505050505050565b600073ffffffffffffffffffffffffffffffffffffffff168473ffffffffffffffffffffffffffffffffffffffff161415611437576040517f08c379a000000000000000000000000000000000000000000000000000000000815260040161142e9061296c565b60405180910390fd5b600061144161105f565b905061146281600087611453886119b7565b61145c886119b7565b876117df565b8260008086815260200190815260200160002060008773ffffffffffffffffffffffffffffffffffffffff1673ffffffffffffffffffffffffffffffffffffffff16815260200190815260200160002060008282546114c19190612afa565b925050819055508473ffffffffffffffffffffffffffffffffffffffff16600073ffffffffffffffffffffffffffffffffffffffff168273ffffffffffffffffffffffffffffffffffffffff167fc3d58168c5ae7397731d063d5bbf3d657854427343f4c083240f7aacaa2d0f62878760405161153f9291906129a7565b60405180910390a461155681600087878787611a7d565b5050505050565b600073ffffffffffffffffffffffffffffffffffffffff168473ffffffffffffffffffffffffffffffffffffffff1614156115cd576040517f08c379a00000000000000000000000000000000000000000000000000000000081526004016115c4906128ac565b60405180910390fd5b60006115d761105f565b90506115f78187876115e8886119b7565b6115f1886119b7565b876117df565b600080600086815260200190815260200160002060008873ffffffffffffffffffffffffffffffffffffffff1673ffffffffffffffffffffffffffffffffffffffff1681526020019081526020016000205490508381101561168e576040517f08c379a0000000000000000000000000000000000000000000000000000000008152600401611685906128ec565b60405180910390fd5b83810360008087815260200190815260200160002060008973ffffffffffffffffffffffffffffffffffffffff1673ffffffffffffffffffffffffffffffffffffffff168152602001908152602001600020819055508360008087815260200190815260200160002060008873ffffffffffffffffffffffffffffffffffffffff1673ffffffffffffffffffffffffffffffffffffffff16815260200190815260200160002060008282546117439190612afa565b925050819055508573ffffffffffffffffffffffffffffffffffffffff168773ffffffffffffffffffffffffffffffffffffffff168373ffffffffffffffffffffffffffffffffffffffff167fc3d58168c5ae7397731d063d5bbf3d657854427343f4c083240f7aacaa2d0f6288886040516117c09291906129a7565b60405180910390a46117d6828888888888611a7d565b50505050505050565b505050505050565b6118068473ffffffffffffffffffffffffffffffffffffffff16610fe2565b156119af578373ffffffffffffffffffffffffffffffffffffffff1663bc197c8187878686866040518663ffffffff1660e01b815260040161184c9594939291906126d4565b602060405180830381600087803b15801561186657600080fd5b505af192505050801561189757506040513d601f19601f8201168201806040525081019061189491906120e1565b60015b611926576118a3612de6565b806118ae57506118eb565b806040517f08c379a00000000000000000000000000000000000000000000000000000000081526004016118e2919061280a565b60405180910390fd5b6040517f08c379a000000000000000000000000000000000000000000000000000000000815260040161191d9061282c565b60405180910390fd5b63bc197c8160e01b7bffffffffffffffffffffffffffffffffffffffffffffffffffffffff1916817bffffffffffffffffffffffffffffffffffffffffffffffffffffffff1916146119ad576040517f08c379a00000000000000000000000000000000000000000000000000000000081526004016119a49061284c565b60405180910390fd5b505b505050505050565b60606000600167ffffffffffffffff8111156119fc577f4e487b7100000000000000000000000000000000000000000000000000000000600052604160045260246000fd5b604051908082528060200260200182016040528015611a2a5781602001602082028036833780820191505090505b5090508281600081518110611a68577f4e487b7100000000000000000000000000000000000000000000000000000000600052603260045260246000fd5b60200260200101818152505080915050919050565b611a9c8473ffffffffffffffffffffffffffffffffffffffff16610fe2565b15611c45578373ffffffffffffffffffffffffffffffffffffffff1663f23a6e6187878686866040518663ffffffff1660e01b8152600401611ae295949392919061273c565b602060405180830381600087803b158015611afc57600080fd5b505af1925050508015611b2d57506040513d601f19601f82011682018060405250810190611b2a91906120e1565b60015b611bbc57611b39612de6565b80611b445750611b81565b806040517f08c379a0000000000000000000000000000000000000000000000000000000008152600401611b78919061280a565b60405180910390fd5b6040517f08c379a0000000000000000000000000000000000000000000000000000000008152600401611bb39061282c565b60405180910390fd5b63f23a6e6160e01b7bffffffffffffffffffffffffffffffffffffffffffffffffffffffff1916817bffffffffffffffffffffffffffffffffffffffffffffffffffffffff191614611c43576040517f08c379a0000000000000000000000000000000000000000000000000000000008152600401611c3a9061284c565b60405180910390fd5b505b505050505050565b6000611c60611c5b84612a01565b6129d0565b90508083825260208201905082856020860282011115611c7f57600080fd5b60005b85811015611caf5781611c958882611d63565b845260208401935060208301925050600181019050611c82565b5050509392505050565b6000611ccc611cc784612a2d565b6129d0565b90508083825260208201905082856020860282011115611ceb57600080fd5b60005b85811015611d1b5781611d018882611e35565b845260208401935060208301925050600181019050611cee565b5050509392505050565b6000611d38611d3384612a59565b6129d0565b905082815260208101848484011115611d5057600080fd5b611d5b848285612c4f565b509392505050565b600081359050611d7281612e9c565b92915050565b600082601f830112611d8957600080fd5b8135611d99848260208601611c4d565b91505092915050565b600082601f830112611db357600080fd5b8135611dc3848260208601611cb9565b91505092915050565b600081359050611ddb81612eb3565b92915050565b600081359050611df081612eca565b92915050565b600081519050611e0581612eca565b92915050565b600082601f830112611e1c57600080fd5b8135611e2c848260208601611d25565b91505092915050565b600081359050611e4481612ee1565b92915050565b60008060408385031215611e5d57600080fd5b6000611e6b85828601611d63565b9250506020611e7c85828601611d63565b9150509250929050565b600080600080600060a08688031215611e9e57600080fd5b6000611eac88828901611d63565b9550506020611ebd88828901611d63565b945050604086013567ffffffffffffffff811115611eda57600080fd5b611ee688828901611da2565b935050606086013567ffffffffffffffff811115611f0357600080fd5b611f0f88828901611da2565b925050608086013567ffffffffffffffff811115611f2c57600080fd5b611f3888828901611e0b565b9150509295509295909350565b600080600080600060a08688031215611f5d57600080fd5b6000611f6b88828901611d63565b9550506020611f7c88828901611d63565b9450506040611f8d88828901611e35565b9350506060611f9e88828901611e35565b925050608086013567ffffffffffffffff811115611fbb57600080fd5b611fc788828901611e0b565b9150509295509295909350565b60008060408385031215611fe757600080fd5b6000611ff585828601611d63565b925050602061200685828601611dcc565b9150509250929050565b6000806040838503121561202357600080fd5b600061203185828601611d63565b925050602061204285828601611e35565b9150509250929050565b6000806040838503121561205f57600080fd5b600083013567ffffffffffffffff81111561207957600080fd5b61208585828601611d78565b925050602083013567ffffffffffffffff8111156120a257600080fd5b6120ae85828601611da2565b9150509250929050565b6000602082840312156120ca57600080fd5b60006120d884828501611de1565b91505092915050565b6000602082840312156120f357600080fd5b600061210184828501611df6565b91505092915050565b60006020828403121561211c57600080fd5b600061212a84828501611e35565b91505092915050565b600061213f838361269b565b60208301905092915050565b61215481612bdb565b82525050565b600061216582612a99565b61216f8185612ac7565b935061217a83612a89565b8060005b838110156121ab5781516121928882612133565b975061219d83612aba565b92505060018101905061217e565b5085935050505092915050565b6121c181612bed565b82525050565b60006121d282612aa4565b6121dc8185612ad8565b93506121ec818560208601612c5e565b6121f581612dc8565b840191505092915050565b600061220b82612aaf565b6122158185612ae9565b9350612225818560208601612c5e565b61222e81612dc8565b840191505092915050565b6000612246603483612ae9565b91507f455243313135353a207472616e7366657220746f206e6f6e204552433131353560008301527f526563656976657220696d706c656d656e7465720000000000000000000000006020830152604082019050919050565b60006122ac602883612ae9565b91507f455243313135353a204552433131353552656365697665722072656a6563746560008301527f6420746f6b656e730000000000000000000000000000000000000000000000006020830152604082019050919050565b6000612312602b83612ae9565b91507f455243313135353a2062616c616e636520717565727920666f7220746865207a60008301527f65726f20616464726573730000000000000000000000000000000000000000006020830152604082019050919050565b6000612378602983612ae9565b91507f455243313135353a2063616c6c6572206973206e6f74206f776e6572206e6f7260008301527f20617070726f76656400000000000000000000000000000000000000000000006020830152604082019050919050565b60006123de602583612ae9565b91507f455243313135353a207472616e7366657220746f20746865207a65726f20616460008301527f64726573730000000000000000000000000000000000000000000000000000006020830152604082019050919050565b6000612444603283612ae9565b91507f455243313135353a207472616e736665722063616c6c6572206973206e6f742060008301527f6f776e6572206e6f7220617070726f76656400000000000000000000000000006020830152604082019050919050565b60006124aa602a83612ae9565b91507f455243313135353a20696e73756666696369656e742062616c616e636520666f60008301527f72207472616e73666572000000000000000000000000000000000000000000006020830152604082019050919050565b6000612510602983612ae9565b91507f455243313135353a2073657474696e6720617070726f76616c2073746174757360008301527f20666f722073656c6600000000000000000000000000000000000000000000006020830152604082019050919050565b6000612576602983612ae9565b91507f455243313135353a206163636f756e747320616e6420696473206c656e67746860008301527f206d69736d6174636800000000000000000000000000000000000000000000006020830152604082019050919050565b60006125dc602883612ae9565b91507f455243313135353a2069647320616e6420616d6f756e7473206c656e6774682060008301527f6d69736d617463680000000000000000000000000000000000000000000000006020830152604082019050919050565b6000612642602183612ae9565b91507f455243313135353a206d696e7420746f20746865207a65726f2061646472657360008301527f73000000000000000000000000000000000000000000000000000000000000006020830152604082019050919050565b6126a481612c45565b82525050565b6126b381612c45565b82525050565b60006020820190506126ce600083018461214b565b92915050565b600060a0820190506126e9600083018861214b565b6126f6602083018761214b565b8181036040830152612708818661215a565b9050818103606083015261271c818561215a565b9050818103608083015261273081846121c7565b90509695505050505050565b600060a082019050612751600083018861214b565b61275e602083018761214b565b61276b60408301866126aa565b61277860608301856126aa565b818103608083015261278a81846121c7565b90509695505050505050565b600060208201905081810360008301526127b0818461215a565b905092915050565b600060408201905081810360008301526127d2818561215a565b905081810360208301526127e6818461215a565b90509392505050565b600060208201905061280460008301846121b8565b92915050565b600060208201905081810360008301526128248184612200565b905092915050565b6000602082019050818103600083015261284581612239565b9050919050565b600060208201905081810360008301526128658161229f565b9050919050565b6000602082019050818103600083015261288581612305565b9050919050565b600060208201905081810360008301526128a58161236b565b9050919050565b600060208201905081810360008301526128c5816123d1565b9050919050565b600060208201905081810360008301526128e581612437565b9050919050565b600060208201905081810360008301526129058161249d565b9050919050565b6000602082019050818103600083015261292581612503565b9050919050565b6000602082019050818103600083015261294581612569565b9050919050565b60006020820190508181036000830152612965816125cf565b9050919050565b6000602082019050818103600083015261298581612635565b9050919050565b60006020820190506129a160008301846126aa565b92915050565b60006040820190506129bc60008301856126aa565b6129c960208301846126aa565b9392505050565b6000604051905081810181811067ffffffffffffffff821117156129f7576129f6612d99565b5b8060405250919050565b600067ffffffffffffffff821115612a1c57612a1b612d99565b5b602082029050602081019050919050565b600067ffffffffffffffff821115612a4857612a47612d99565b5b602082029050602081019050919050565b600067ffffffffffffffff821115612a7457612a73612d99565b5b601f19601f8301169050602081019050919050565b6000819050602082019050919050565b600081519050919050565b600081519050919050565b600081519050919050565b6000602082019050919050565b600082825260208201905092915050565b600082825260208201905092915050565b600082825260208201905092915050565b6000612b0582612c45565b9150612b1083612c45565b9250827fffffffffffffffffffffffffffffffffffffffffffffffffffffffffffffffff03821115612b4557612b44612d0c565b5b828201905092915050565b6000612b5b82612c45565b9150612b6683612c45565b925082612b7657612b75612d3b565b5b828204905092915050565b6000612b8c82612c45565b9150612b9783612c45565b9250817fffffffffffffffffffffffffffffffffffffffffffffffffffffffffffffffff0483118215151615612bd057612bcf612d0c565b5b828202905092915050565b6000612be682612c25565b9050919050565b60008115159050919050565b60007fffffffff0000000000000000000000000000000000000000000000000000000082169050919050565b600073ffffffffffffffffffffffffffffffffffffffff82169050919050565b6000819050919050565b82818337600083830152505050565b60005b83811015612c7c578082015181840152602081019050612c61565b83811115612c8b576000848401525b50505050565b60006002820490506001821680612ca957607f821691505b60208210811415612cbd57612cbc612d6a565b5b50919050565b6000612cce82612c45565b91507fffffffffffffffffffffffffffffffffffffffffffffffffffffffffffffffff821415612d0157612d00612d0c565b5b600182019050919050565b7f4e487b7100000000000000000000000000000000000000000000000000000000600052601160045260246000fd5b7f4e487b7100000000000000000000000000000000000000000000000000000000600052601260045260246000fd5b7f4e487b7100000000000000000000000000000000000000000000000000000000600052602260045260246000fd5b7f4e487b7100000000000000000000000000000000000000000000000000000000600052604160045260246000fd5b6000601f19601f8301169050919050565b60008160e01c9050919050565b600060443d1015612df657612e99565b60046000803e612e07600051612dd9565b6308c379a08114612e185750612e99565b60405160043d036004823e80513d602482011167ffffffffffffffff82111715612e4457505050612e99565b808201805167ffffffffffffffff811115612e63575050505050612e99565b8060208301013d8501811115612e7e57505050505050612e99565b612e8782612dc8565b60208401016040528296505050505050505b90565b612ea581612bdb565b8114612eb057600080fd5b50565b612ebc81612bed565b8114612ec757600080fd5b50565b612ed381612bf9565b8114612ede57600080fd5b50565b612eea81612c45565b8114612ef557600080fd5b5056fea2646970667358221220aee13eee1fb4b6674d29dd31e21e8f95d979e1dec11c81498a7169e7a5da331664736f6c63430008000033",
  "linkReferences": {},
  "deployedLinkReferences": {}
}